{
  "contractName": "CryptoTrophies",
  "abi": [
    {
      "inputs": [
        {
          "internalType": "string",
          "name": "__baseURI",
          "type": "string"
        }
      ],
      "stateMutability": "nonpayable",
      "type": "constructor"
    },
    {
      "anonymous": false,
      "inputs": [
        {
          "indexed": true,
          "internalType": "address",
          "name": "owner",
          "type": "address"
        },
        {
          "indexed": true,
          "internalType": "address",
          "name": "approved",
          "type": "address"
        },
        {
          "indexed": true,
          "internalType": "uint256",
          "name": "tokenId",
          "type": "uint256"
        }
      ],
      "name": "Approval",
      "type": "event"
    },
    {
      "anonymous": false,
      "inputs": [
        {
          "indexed": true,
          "internalType": "address",
          "name": "owner",
          "type": "address"
        },
        {
          "indexed": true,
          "internalType": "address",
          "name": "operator",
          "type": "address"
        },
        {
          "indexed": false,
          "internalType": "bool",
          "name": "approved",
          "type": "bool"
        }
      ],
      "name": "ApprovalForAll",
      "type": "event"
    },
    {
      "anonymous": false,
      "inputs": [
        {
          "indexed": true,
          "internalType": "address",
          "name": "previousOwner",
          "type": "address"
        },
        {
          "indexed": true,
          "internalType": "address",
          "name": "newOwner",
          "type": "address"
        }
      ],
      "name": "OwnershipTransferred",
      "type": "event"
    },
    {
      "anonymous": false,
      "inputs": [
        {
          "indexed": true,
          "internalType": "address",
          "name": "from",
          "type": "address"
        },
        {
          "indexed": true,
          "internalType": "address",
          "name": "to",
          "type": "address"
        },
        {
          "indexed": true,
          "internalType": "uint256",
          "name": "tokenId",
          "type": "uint256"
        }
      ],
      "name": "Transfer",
      "type": "event"
    },
    {
      "stateMutability": "payable",
      "type": "fallback"
    },
    {
      "inputs": [],
      "name": "TRUTH",
      "outputs": [
        {
          "internalType": "string",
          "name": "",
          "type": "string"
        }
      ],
      "stateMutability": "view",
      "type": "function"
    },
    {
      "inputs": [
        {
          "internalType": "address",
          "name": "to",
          "type": "address"
        },
        {
          "internalType": "uint256",
          "name": "tokenId",
          "type": "uint256"
        }
      ],
      "name": "approve",
      "outputs": [],
      "stateMutability": "nonpayable",
      "type": "function"
    },
    {
      "inputs": [
        {
          "internalType": "address",
          "name": "owner",
          "type": "address"
        }
      ],
      "name": "balanceOf",
      "outputs": [
        {
          "internalType": "uint256",
          "name": "",
          "type": "uint256"
        }
      ],
      "stateMutability": "view",
      "type": "function"
    },
    {
      "inputs": [],
      "name": "baseURI",
      "outputs": [
        {
          "internalType": "string",
          "name": "",
          "type": "string"
        }
      ],
      "stateMutability": "view",
      "type": "function"
    },
    {
      "inputs": [
        {
          "internalType": "uint256",
          "name": "tokenId",
          "type": "uint256"
        }
      ],
      "name": "getApproved",
      "outputs": [
        {
          "internalType": "address",
          "name": "",
          "type": "address"
        }
      ],
      "stateMutability": "view",
      "type": "function"
    },
    {
      "inputs": [
        {
          "internalType": "address",
          "name": "owner",
          "type": "address"
        },
        {
          "internalType": "address",
          "name": "operator",
          "type": "address"
        }
      ],
      "name": "isApprovedForAll",
      "outputs": [
        {
          "internalType": "bool",
          "name": "",
          "type": "bool"
        }
      ],
      "stateMutability": "view",
      "type": "function"
    },
    {
      "inputs": [],
      "name": "name",
      "outputs": [
        {
          "internalType": "string",
          "name": "",
          "type": "string"
        }
      ],
      "stateMutability": "view",
      "type": "function"
    },
    {
      "inputs": [],
      "name": "owner",
      "outputs": [
        {
          "internalType": "address",
          "name": "",
          "type": "address"
        }
      ],
      "stateMutability": "view",
      "type": "function"
    },
    {
      "inputs": [
        {
          "internalType": "uint256",
          "name": "tokenId",
          "type": "uint256"
        }
      ],
      "name": "ownerOf",
      "outputs": [
        {
          "internalType": "address",
          "name": "",
          "type": "address"
        }
      ],
      "stateMutability": "view",
      "type": "function"
    },
    {
      "inputs": [],
      "name": "renounceOwnership",
      "outputs": [],
      "stateMutability": "nonpayable",
      "type": "function"
    },
    {
      "inputs": [
        {
          "internalType": "address",
          "name": "from",
          "type": "address"
        },
        {
          "internalType": "address",
          "name": "to",
          "type": "address"
        },
        {
          "internalType": "uint256",
          "name": "tokenId",
          "type": "uint256"
        }
      ],
      "name": "safeTransferFrom",
      "outputs": [],
      "stateMutability": "nonpayable",
      "type": "function"
    },
    {
      "inputs": [
        {
          "internalType": "address",
          "name": "from",
          "type": "address"
        },
        {
          "internalType": "address",
          "name": "to",
          "type": "address"
        },
        {
          "internalType": "uint256",
          "name": "tokenId",
          "type": "uint256"
        },
        {
          "internalType": "bytes",
          "name": "_data",
          "type": "bytes"
        }
      ],
      "name": "safeTransferFrom",
      "outputs": [],
      "stateMutability": "nonpayable",
      "type": "function"
    },
    {
      "inputs": [
        {
          "internalType": "address",
          "name": "operator",
          "type": "address"
        },
        {
          "internalType": "bool",
          "name": "approved",
          "type": "bool"
        }
      ],
      "name": "setApprovalForAll",
      "outputs": [],
      "stateMutability": "nonpayable",
      "type": "function"
    },
    {
      "inputs": [
        {
          "internalType": "bytes4",
          "name": "interfaceId",
          "type": "bytes4"
        }
      ],
      "name": "supportsInterface",
      "outputs": [
        {
          "internalType": "bool",
          "name": "",
          "type": "bool"
        }
      ],
      "stateMutability": "view",
      "type": "function"
    },
    {
      "inputs": [],
      "name": "symbol",
      "outputs": [
        {
          "internalType": "string",
          "name": "",
          "type": "string"
        }
      ],
      "stateMutability": "view",
      "type": "function"
    },
    {
      "inputs": [
        {
          "internalType": "uint256",
          "name": "index",
          "type": "uint256"
        }
      ],
      "name": "tokenByIndex",
      "outputs": [
        {
          "internalType": "uint256",
          "name": "",
          "type": "uint256"
        }
      ],
      "stateMutability": "view",
      "type": "function"
    },
    {
      "inputs": [
        {
          "internalType": "address",
          "name": "owner",
          "type": "address"
        },
        {
          "internalType": "uint256",
          "name": "index",
          "type": "uint256"
        }
      ],
      "name": "tokenOfOwnerByIndex",
      "outputs": [
        {
          "internalType": "uint256",
          "name": "",
          "type": "uint256"
        }
      ],
      "stateMutability": "view",
      "type": "function"
    },
    {
      "inputs": [
        {
          "internalType": "uint256",
          "name": "tokenId",
          "type": "uint256"
        }
      ],
      "name": "tokenURI",
      "outputs": [
        {
          "internalType": "string",
          "name": "",
          "type": "string"
        }
      ],
      "stateMutability": "view",
      "type": "function"
    },
    {
      "inputs": [],
      "name": "totalSupply",
      "outputs": [
        {
          "internalType": "uint256",
          "name": "",
          "type": "uint256"
        }
      ],
      "stateMutability": "view",
      "type": "function"
    },
    {
      "inputs": [
        {
          "internalType": "address",
          "name": "from",
          "type": "address"
        },
        {
          "internalType": "address",
          "name": "to",
          "type": "address"
        },
        {
          "internalType": "uint256",
          "name": "tokenId",
          "type": "uint256"
        }
      ],
      "name": "transferFrom",
      "outputs": [],
      "stateMutability": "nonpayable",
      "type": "function"
    },
    {
      "inputs": [
        {
          "internalType": "address",
          "name": "newOwner",
          "type": "address"
        }
      ],
      "name": "transferOwnership",
      "outputs": [],
      "stateMutability": "nonpayable",
      "type": "function"
    },
    {
      "stateMutability": "payable",
      "type": "receive"
    },
    {
      "inputs": [
        {
          "internalType": "address[]",
          "name": "_receivers",
          "type": "address[]"
        }
      ],
      "name": "mineCryptoTrophies",
      "outputs": [],
      "stateMutability": "nonpayable",
      "type": "function"
    },
    {
      "inputs": [],
      "name": "withdrawContractEth",
      "outputs": [],
      "stateMutability": "nonpayable",
      "type": "function"
    },
    {
      "inputs": [],
      "name": "totalCryptoTrophies",
      "outputs": [
        {
          "internalType": "uint256",
          "name": "",
          "type": "uint256"
        }
      ],
      "stateMutability": "view",
      "type": "function"
    },
    {
      "inputs": [
        {
          "internalType": "address",
          "name": "_owner",
          "type": "address"
        }
      ],
      "name": "cryptoTrophiesOf",
      "outputs": [
        {
          "internalType": "uint256[]",
          "name": "",
          "type": "uint256[]"
        }
      ],
      "stateMutability": "view",
      "type": "function"
    },
    {
      "inputs": [],
      "name": "contractEthBalance",
      "outputs": [
        {
          "internalType": "uint256",
          "name": "",
          "type": "uint256"
        }
      ],
      "stateMutability": "view",
      "type": "function"
    },
    {
      "inputs": [
        {
          "internalType": "string",
          "name": "_baseURI",
          "type": "string"
        }
      ],
      "name": "setBaseURI",
      "outputs": [],
      "stateMutability": "nonpayable",
      "type": "function"
    }
  ],
  "bytecode": "0x60806040523480156200001157600080fd5b5060405162003f9438038062003f94833981810160405260208110156200003757600080fd5b81019080805160405193929190846401000000008211156200005857600080fd5b838201915060208201858111156200006f57600080fd5b82518660018202830111640100000000821117156200008d57600080fd5b8083526020830192505050908051906020019080838360005b83811015620000c3578082015181840152602081019050620000a6565b50505050905090810190601f168015620000f15780820380516001836020036101000a031916815260200191505b506040525050506040518060400160405280600e81526020017f43727970746f54726f70686965730000000000000000000000000000000000008152506040518060400160405280600581526020017f43525950540000000000000000000000000000000000000000000000000000008152506200017c6301ffc9a760e01b620002c160201b60201c565b816006908051906020019062000194929190620004ec565b508060079080519060200190620001ad929190620004ec565b50620001c66380ac58cd60e01b620002c160201b60201c565b620001de635b5e139f60e01b620002c160201b60201c565b620001f663780e9d6360e01b620002c160201b60201c565b505060006200020a620003ca60201b60201c565b905080600a60006101000a81548173ffffffffffffffffffffffffffffffffffffffff021916908373ffffffffffffffffffffffffffffffffffffffff1602179055508073ffffffffffffffffffffffffffffffffffffffff16600073ffffffffffffffffffffffffffffffffffffffff167f8be0079c531659141344cd1fd0a4f28419497f9722a3daafe3b4186f6b6457e060405160405180910390a350620002ba81620003d260201b60201c565b50620005a2565b63ffffffff60e01b817bffffffffffffffffffffffffffffffffffffffffffffffffffffffff191614156200035e576040517f08c379a000000000000000000000000000000000000000000000000000000000815260040180806020018281038252601c8152602001807f4552433136353a20696e76616c696420696e746572666163652069640000000081525060200191505060405180910390fd5b6001600080837bffffffffffffffffffffffffffffffffffffffffffffffffffffffff19167bffffffffffffffffffffffffffffffffffffffffffffffffffffffff1916815260200190815260200160002060006101000a81548160ff02191690831515021790555050565b600033905090565b620003e2620003ca60201b60201c565b73ffffffffffffffffffffffffffffffffffffffff1662000408620004a660201b60201c565b73ffffffffffffffffffffffffffffffffffffffff161462000492576040517f08c379a00000000000000000000000000000000000000000000000000000000081526004018080602001828103825260208152602001807f4f776e61626c653a2063616c6c6572206973206e6f7420746865206f776e657281525060200191505060405180910390fd5b620004a381620004d060201b60201c565b50565b6000600a60009054906101000a900473ffffffffffffffffffffffffffffffffffffffff16905090565b8060099080519060200190620004e8929190620004ec565b5050565b828054600181600116156101000203166002900490600052602060002090601f01602090048101928262000524576000855562000570565b82601f106200053f57805160ff191683800117855562000570565b8280016001018555821562000570579182015b828111156200056f57825182559160200191906001019062000552565b5b5090506200057f919062000583565b5090565b5b808211156200059e57600081600090555060010162000584565b5090565b6139e280620005b26000396000f3fe6080604052600436106101a05760003560e01c8063655ba329116100ec578063a4ba6b151161008a578063c87b56dd11610064578063c87b56dd14610b83578063e985e9c514610c37578063efa1444014610cbe578063f2fde38b14610d64576101a7565b8063a4ba6b1514610a2f578063b88d4fde14610a5a578063ba4de8d414610b6c576101a7565b8063715018a6116100c6578063715018a6146108ea5780638da5cb5b1461090157806395d89b4114610942578063a22cb465146109d2576101a7565b8063655ba329146107655780636c0360eb146107f557806370a0823114610885576101a7565b8063253ea3cb116101595780634f6ccce7116101335780634f6ccce7146105be57806355f804b31461060d5780635d58ce36146106d55780636352211e14610700576101a7565b8063253ea3cb1461040f5780632f745c59146104d457806342842e0e14610543576101a7565b806301ffc9a7146101a957806306fdde0314610219578063081812fc146102a9578063095ea7b31461030e57806318160ddd1461036957806323b872dd14610394576101a7565b366101a757005b005b3480156101b557600080fd5b50610201600480360360208110156101cc57600080fd5b8101908080357bffffffffffffffffffffffffffffffffffffffffffffffffffffffff19169060200190929190505050610db5565b60405180821515815260200191505060405180910390f35b34801561022557600080fd5b5061022e610e1c565b6040518080602001828103825283818151815260200191508051906020019080838360005b8381101561026e578082015181840152602081019050610253565b50505050905090810190601f16801561029b5780820380516001836020036101000a031916815260200191505b509250505060405180910390f35b3480156102b557600080fd5b506102e2600480360360208110156102cc57600080fd5b8101908080359060200190929190505050610ebe565b604051808273ffffffffffffffffffffffffffffffffffffffff16815260200191505060405180910390f35b34801561031a57600080fd5b506103676004803603604081101561033157600080fd5b81019080803573ffffffffffffffffffffffffffffffffffffffff16906020019092919080359060200190929190505050610f59565b005b34801561037557600080fd5b5061037e61109d565b6040518082815260200191505060405180910390f35b3480156103a057600080fd5b5061040d600480360360608110156103b757600080fd5b81019080803573ffffffffffffffffffffffffffffffffffffffff169060200190929190803573ffffffffffffffffffffffffffffffffffffffff169060200190929190803590602001909291905050506110ae565b005b34801561041b57600080fd5b506104d26004803603602081101561043257600080fd5b810190808035906020019064010000000081111561044f57600080fd5b82018360208201111561046157600080fd5b8035906020019184602083028401116401000000008311171561048357600080fd5b919080806020026020016040519081016040528093929190818152602001838360200280828437600081840152601f19601f820116905080830192505050505050509192919290505050611124565b005b3480156104e057600080fd5b5061052d600480360360408110156104f757600080fd5b81019080803573ffffffffffffffffffffffffffffffffffffffff16906020019092919080359060200190929190505050611335565b6040518082815260200191505060405180910390f35b34801561054f57600080fd5b506105bc6004803603606081101561056657600080fd5b81019080803573ffffffffffffffffffffffffffffffffffffffff169060200190929190803573ffffffffffffffffffffffffffffffffffffffff16906020019092919080359060200190929190505050611390565b005b3480156105ca57600080fd5b506105f7600480360360208110156105e157600080fd5b81019080803590602001909291905050506113b0565b6040518082815260200191505060405180910390f35b34801561061957600080fd5b506106d36004803603602081101561063057600080fd5b810190808035906020019064010000000081111561064d57600080fd5b82018360208201111561065f57600080fd5b8035906020019184600183028401116401000000008311171561068157600080fd5b91908080601f016020809104026020016040519081016040528093929190818152602001838380828437600081840152601f19601f8201169050808301925050505050505091929192905050506113d3565b005b3480156106e157600080fd5b506106ea61148e565b6040518082815260200191505060405180910390f35b34801561070c57600080fd5b506107396004803603602081101561072357600080fd5b8101908080359060200190929190505050611496565b604051808273ffffffffffffffffffffffffffffffffffffffff16815260200191505060405180910390f35b34801561077157600080fd5b5061077a6114cd565b6040518080602001828103825283818151815260200191508051906020019080838360005b838110156107ba57808201518184015260208101905061079f565b50505050905090810190601f1680156107e75780820380516001836020036101000a031916815260200191505b509250505060405180910390f35b34801561080157600080fd5b5061080a6114e9565b6040518080602001828103825283818151815260200191508051906020019080838360005b8381101561084a57808201518184015260208101905061082f565b50505050905090810190601f1680156108775780820380516001836020036101000a031916815260200191505b509250505060405180910390f35b34801561089157600080fd5b506108d4600480360360208110156108a857600080fd5b81019080803573ffffffffffffffffffffffffffffffffffffffff16906020019092919050505061158b565b6040518082815260200191505060405180910390f35b3480156108f657600080fd5b506108ff611660565b005b34801561090d57600080fd5b506109166117d0565b604051808273ffffffffffffffffffffffffffffffffffffffff16815260200191505060405180910390f35b34801561094e57600080fd5b506109576117fa565b6040518080602001828103825283818151815260200191508051906020019080838360005b8381101561099757808201518184015260208101905061097c565b50505050905090810190601f1680156109c45780820380516001836020036101000a031916815260200191505b509250505060405180910390f35b3480156109de57600080fd5b50610a2d600480360360408110156109f557600080fd5b81019080803573ffffffffffffffffffffffffffffffffffffffff16906020019092919080351515906020019092919050505061189c565b005b348015610a3b57600080fd5b50610a44611a52565b6040518082815260200191505060405180910390f35b348015610a6657600080fd5b50610b6a60048036036080811015610a7d57600080fd5b81019080803573ffffffffffffffffffffffffffffffffffffffff169060200190929190803573ffffffffffffffffffffffffffffffffffffffff1690602001909291908035906020019092919080359060200190640100000000811115610ae457600080fd5b820183602082011115610af657600080fd5b80359060200191846001830284011164010000000083111715610b1857600080fd5b91908080601f016020809104026020016040519081016040528093929190818152602001838380828437600081840152601f19601f820116905080830192505050505050509192919290505050611a61565b005b348015610b7857600080fd5b50610b81611ad9565b005b348015610b8f57600080fd5b50610bbc60048036036020811015610ba657600080fd5b8101908080359060200190929190505050611c6b565b6040518080602001828103825283818151815260200191508051906020019080838360005b83811015610bfc578082015181840152602081019050610be1565b50505050905090810190601f168015610c295780820380516001836020036101000a031916815260200191505b509250505060405180910390f35b348015610c4357600080fd5b50610ca660048036036040811015610c5a57600080fd5b81019080803573ffffffffffffffffffffffffffffffffffffffff169060200190929190803573ffffffffffffffffffffffffffffffffffffffff169060200190929190505050611f3c565b60405180821515815260200191505060405180910390f35b348015610cca57600080fd5b50610d0d60048036036020811015610ce157600080fd5b81019080803573ffffffffffffffffffffffffffffffffffffffff169060200190929190505050611fd0565b6040518080602001828103825283818151815260200191508051906020019060200280838360005b83811015610d50578082015181840152602081019050610d35565b505050509050019250505060405180910390f35b348015610d7057600080fd5b50610db360048036036020811015610d8757600080fd5b81019080803573ffffffffffffffffffffffffffffffffffffffff169060200190929190505050612067565b005b6000806000837bffffffffffffffffffffffffffffffffffffffffffffffffffffffff19167bffffffffffffffffffffffffffffffffffffffffffffffffffffffff1916815260200190815260200160002060009054906101000a900460ff169050919050565b606060068054600181600116156101000203166002900480601f016020809104026020016040519081016040528092919081815260200182805460018160011615610100020316600290048015610eb45780601f10610e8957610100808354040283529160200191610eb4565b820191906000526020600020905b815481529060010190602001808311610e9757829003601f168201915b5050505050905090565b6000610ec98261225c565b610f1e576040517f08c379a000000000000000000000000000000000000000000000000000000000815260040180806020018281038252602c8152602001806138d7602c913960400191505060405180910390fd5b6004600083815260200190815260200160002060009054906101000a900473ffffffffffffffffffffffffffffffffffffffff169050919050565b6000610f6482611496565b90508073ffffffffffffffffffffffffffffffffffffffff168373ffffffffffffffffffffffffffffffffffffffff161415610feb576040517f08c379a000000000000000000000000000000000000000000000000000000000815260040180806020018281038252602181526020018061395b6021913960400191505060405180910390fd5b8073ffffffffffffffffffffffffffffffffffffffff1661100a612279565b73ffffffffffffffffffffffffffffffffffffffff161480611039575061103881611033612279565b611f3c565b5b61108e576040517f08c379a000000000000000000000000000000000000000000000000000000000815260040180806020018281038252603881526020018061382a6038913960400191505060405180910390fd5b6110988383612281565b505050565b60006110a9600261233a565b905090565b6110bf6110b9612279565b8261234f565b611114576040517f08c379a000000000000000000000000000000000000000000000000000000000815260040180806020018281038252603181526020018061397c6031913960400191505060405180910390fd5b61111f838383612443565b505050565b61112c612279565b73ffffffffffffffffffffffffffffffffffffffff1661114a6117d0565b73ffffffffffffffffffffffffffffffffffffffff16146111d3576040517f08c379a00000000000000000000000000000000000000000000000000000000081526004018080602001828103825260208152602001807f4f776e61626c653a2063616c6c6572206973206e6f7420746865206f776e657281525060200191505060405180910390fd5b600081519050600080600090505b8281101561132f57600073ffffffffffffffffffffffffffffffffffffffff1684828151811061120d57fe5b602002602001015173ffffffffffffffffffffffffffffffffffffffff161415611282576040517f08c379a00000000000000000000000000000000000000000000000000000000081526004018080602001828103825260338152602001806137f76033913960400191505060405180910390fd5b61128c600b612513565b9150600c600085838151811061129e57fe5b602002602001015173ffffffffffffffffffffffffffffffffffffffff1673ffffffffffffffffffffffffffffffffffffffff1681526020019081526020016000208290806001815401808255809150506001900390600052602060002001600090919091909150556113186113126117d0565b83612521565b611322600b61253f565b80806001019150506111e1565b50505050565b600061138882600160008673ffffffffffffffffffffffffffffffffffffffff1673ffffffffffffffffffffffffffffffffffffffff16815260200190815260200160002061255590919063ffffffff16565b905092915050565b6113ab83838360405180602001604052806000815250611a61565b505050565b6000806113c783600261256f90919063ffffffff16565b50905080915050919050565b6113db612279565b73ffffffffffffffffffffffffffffffffffffffff166113f96117d0565b73ffffffffffffffffffffffffffffffffffffffff1614611482576040517f08c379a00000000000000000000000000000000000000000000000000000000081526004018080602001828103825260208152602001807f4f776e61626c653a2063616c6c6572206973206e6f7420746865206f776e657281525060200191505060405180910390fd5b61148b8161259b565b50565b600047905090565b60006114c68260405180606001604052806029815260200161388c6029913960026125b59092919063ffffffff16565b9050919050565b6040518060600160405280602281526020016137836022913981565b606060098054600181600116156101000203166002900480601f0160208091040260200160405190810160405280929190818152602001828054600181600116156101000203166002900480156115815780601f1061155657610100808354040283529160200191611581565b820191906000526020600020905b81548152906001019060200180831161156457829003601f168201915b5050505050905090565b60008073ffffffffffffffffffffffffffffffffffffffff168273ffffffffffffffffffffffffffffffffffffffff161415611612576040517f08c379a000000000000000000000000000000000000000000000000000000000815260040180806020018281038252602a815260200180613862602a913960400191505060405180910390fd5b611659600160008473ffffffffffffffffffffffffffffffffffffffff1673ffffffffffffffffffffffffffffffffffffffff1681526020019081526020016000206125d4565b9050919050565b611668612279565b73ffffffffffffffffffffffffffffffffffffffff166116866117d0565b73ffffffffffffffffffffffffffffffffffffffff161461170f576040517f08c379a00000000000000000000000000000000000000000000000000000000081526004018080602001828103825260208152602001807f4f776e61626c653a2063616c6c6572206973206e6f7420746865206f776e657281525060200191505060405180910390fd5b600073ffffffffffffffffffffffffffffffffffffffff16600a60009054906101000a900473ffffffffffffffffffffffffffffffffffffffff1673ffffffffffffffffffffffffffffffffffffffff167f8be0079c531659141344cd1fd0a4f28419497f9722a3daafe3b4186f6b6457e060405160405180910390a36000600a60006101000a81548173ffffffffffffffffffffffffffffffffffffffff021916908373ffffffffffffffffffffffffffffffffffffffff160217905550565b6000600a60009054906101000a900473ffffffffffffffffffffffffffffffffffffffff16905090565b606060078054600181600116156101000203166002900480601f0160208091040260200160405190810160405280929190818152602001828054600181600116156101000203166002900480156118925780601f1061186757610100808354040283529160200191611892565b820191906000526020600020905b81548152906001019060200180831161187557829003601f168201915b5050505050905090565b6118a4612279565b73ffffffffffffffffffffffffffffffffffffffff168273ffffffffffffffffffffffffffffffffffffffff161415611945576040517f08c379a00000000000000000000000000000000000000000000000000000000081526004018080602001828103825260198152602001807f4552433732313a20617070726f766520746f2063616c6c65720000000000000081525060200191505060405180910390fd5b8060056000611952612279565b73ffffffffffffffffffffffffffffffffffffffff1673ffffffffffffffffffffffffffffffffffffffff16815260200190815260200160002060008473ffffffffffffffffffffffffffffffffffffffff1673ffffffffffffffffffffffffffffffffffffffff16815260200190815260200160002060006101000a81548160ff0219169083151502179055508173ffffffffffffffffffffffffffffffffffffffff166119ff612279565b73ffffffffffffffffffffffffffffffffffffffff167f17307eab39ab6107e8899845ad3d59bd9653f200f220920489ca2b5937696c318360405180821515815260200191505060405180910390a35050565b6000611a5c61109d565b905090565b611a72611a6c612279565b8361234f565b611ac7576040517f08c379a000000000000000000000000000000000000000000000000000000000815260040180806020018281038252603181526020018061397c6031913960400191505060405180910390fd5b611ad3848484846125e9565b50505050565b611ae1612279565b73ffffffffffffffffffffffffffffffffffffffff16611aff6117d0565b73ffffffffffffffffffffffffffffffffffffffff1614611b88576040517f08c379a00000000000000000000000000000000000000000000000000000000081526004018080602001828103825260208152602001807f4f776e61626c653a2063616c6c6572206973206e6f7420746865206f776e657281525060200191505060405180910390fd5b60003373ffffffffffffffffffffffffffffffffffffffff166108fc47604051806000019050600060405180830381858888f193505050503d8060008114611bec576040519150601f19603f3d011682016040523d82523d6000602084013e611bf1565b606091505b5050905080611c68576040517f08c379a000000000000000000000000000000000000000000000000000000000815260040180806020018281038252600f8152602001807f5769746864726177206661696c6564000000000000000000000000000000000081525060200191505060405180910390fd5b50565b6060611c768261225c565b611ccb576040517f08c379a000000000000000000000000000000000000000000000000000000000815260040180806020018281038252602f81526020018061392c602f913960400191505060405180910390fd5b6060600860008481526020019081526020016000208054600181600116156101000203166002900480601f016020809104026020016040519081016040528092919081815260200182805460018160011615610100020316600290048015611d745780601f10611d4957610100808354040283529160200191611d74565b820191906000526020600020905b815481529060010190602001808311611d5757829003601f168201915b505050505090506060611d856114e9565b9050600081511415611d9b578192505050611f37565b600082511115611e6c5780826040516020018083805190602001908083835b60208310611ddd5780518252602082019150602081019050602083039250611dba565b6001836020036101000a03801982511681845116808217855250505050505090500182805190602001908083835b60208310611e2e5780518252602082019150602081019050602083039250611e0b565b6001836020036101000a0380198251168184511680821785525050505050509050019250505060405160208183030381529060405292505050611f37565b80611e768561265b565b6040516020018083805190602001908083835b60208310611eac5780518252602082019150602081019050602083039250611e89565b6001836020036101000a03801982511681845116808217855250505050505090500182805190602001908083835b60208310611efd5780518252602082019150602081019050602083039250611eda565b6001836020036101000a03801982511681845116808217855250505050505090500192505050604051602081830303815290604052925050505b919050565b6000600560008473ffffffffffffffffffffffffffffffffffffffff1673ffffffffffffffffffffffffffffffffffffffff16815260200190815260200160002060008373ffffffffffffffffffffffffffffffffffffffff1673ffffffffffffffffffffffffffffffffffffffff16815260200190815260200160002060009054906101000a900460ff16905092915050565b6060600c60008373ffffffffffffffffffffffffffffffffffffffff1673ffffffffffffffffffffffffffffffffffffffff16815260200190815260200160002080548060200260200160405190810160405280929190818152602001828054801561205b57602002820191906000526020600020905b815481526020019060010190808311612047575b50505050509050919050565b61206f612279565b73ffffffffffffffffffffffffffffffffffffffff1661208d6117d0565b73ffffffffffffffffffffffffffffffffffffffff1614612116576040517f08c379a00000000000000000000000000000000000000000000000000000000081526004018080602001828103825260208152602001807f4f776e61626c653a2063616c6c6572206973206e6f7420746865206f776e657281525060200191505060405180910390fd5b600073ffffffffffffffffffffffffffffffffffffffff168173ffffffffffffffffffffffffffffffffffffffff16141561219c576040517f08c379a00000000000000000000000000000000000000000000000000000000081526004018080602001828103825260268152602001806137396026913960400191505060405180910390fd5b8073ffffffffffffffffffffffffffffffffffffffff16600a60009054906101000a900473ffffffffffffffffffffffffffffffffffffffff1673ffffffffffffffffffffffffffffffffffffffff167f8be0079c531659141344cd1fd0a4f28419497f9722a3daafe3b4186f6b6457e060405160405180910390a380600a60006101000a81548173ffffffffffffffffffffffffffffffffffffffff021916908373ffffffffffffffffffffffffffffffffffffffff16021790555050565b60006122728260026127a290919063ffffffff16565b9050919050565b600033905090565b816004600083815260200190815260200160002060006101000a81548173ffffffffffffffffffffffffffffffffffffffff021916908373ffffffffffffffffffffffffffffffffffffffff160217905550808273ffffffffffffffffffffffffffffffffffffffff166122f483611496565b73ffffffffffffffffffffffffffffffffffffffff167f8c5be1e5ebec7d5bd14f71427d1e84f3dd0314c0f7b2291e5b200ac8c7c3b92560405160405180910390a45050565b6000612348826000016127bc565b9050919050565b600061235a8261225c565b6123af576040517f08c379a000000000000000000000000000000000000000000000000000000000815260040180806020018281038252602c8152602001806137cb602c913960400191505060405180910390fd5b60006123ba83611496565b90508073ffffffffffffffffffffffffffffffffffffffff168473ffffffffffffffffffffffffffffffffffffffff16148061242957508373ffffffffffffffffffffffffffffffffffffffff1661241184610ebe565b73ffffffffffffffffffffffffffffffffffffffff16145b8061243a57506124398185611f3c565b5b91505092915050565b6000600c60008573ffffffffffffffffffffffffffffffffffffffff1673ffffffffffffffffffffffffffffffffffffffff168152602001908152602001600020828154811061248f57fe5b9060005260206000200181905550600c60008373ffffffffffffffffffffffffffffffffffffffff1673ffffffffffffffffffffffffffffffffffffffff16815260200190815260200160002081908060018154018082558091505060019003906000526020600020016000909190919091505561250e8383836127cd565b505050565b600081600001549050919050565b61253b828260405180602001604052806000815250612a10565b5050565b6001816000016000828254019250508190555050565b60006125648360000183612a81565b60001c905092915050565b6000806000806125828660000186612b04565b915091508160001c8160001c9350935050509250929050565b80600990805190602001906125b1929190613639565b5050565b60006125c8846000018460001b84612b9d565b60001c90509392505050565b60006125e282600001612c93565b9050919050565b6125f4848484612443565b61260084848484612ca4565b612655576040517f08c379a00000000000000000000000000000000000000000000000000000000081526004018080602001828103825260328152602001806137076032913960400191505060405180910390fd5b50505050565b606060008214156126a3576040518060400160405280600181526020017f3000000000000000000000000000000000000000000000000000000000000000815250905061279d565b600082905060005b600082146126cd578080600101915050600a82816126c557fe5b0491506126ab565b60608167ffffffffffffffff811180156126e657600080fd5b506040519080825280601f01601f1916602001820160405280156127195781602001600182028036833780820191505090505b50905060006001830390508593505b6000841461279557600a848161273a57fe5b0660300160f81b8282806001900393508151811061275457fe5b60200101907effffffffffffffffffffffffffffffffffffffffffffffffffffffffffffff1916908160001a905350600a848161278d57fe5b049350612728565b819450505050505b919050565b60006127b4836000018360001b612ebd565b905092915050565b600081600001805490509050919050565b8273ffffffffffffffffffffffffffffffffffffffff166127ed82611496565b73ffffffffffffffffffffffffffffffffffffffff1614612859576040517f08c379a00000000000000000000000000000000000000000000000000000000081526004018080602001828103825260298152602001806139036029913960400191505060405180910390fd5b600073ffffffffffffffffffffffffffffffffffffffff168273ffffffffffffffffffffffffffffffffffffffff1614156128df576040517f08c379a000000000000000000000000000000000000000000000000000000000815260040180806020018281038252602481526020018061375f6024913960400191505060405180910390fd5b6128ea838383612ee0565b6128f5600082612281565b61294681600160008673ffffffffffffffffffffffffffffffffffffffff1673ffffffffffffffffffffffffffffffffffffffff168152602001908152602001600020612ee590919063ffffffff16565b5061299881600160008573ffffffffffffffffffffffffffffffffffffffff1673ffffffffffffffffffffffffffffffffffffffff168152602001908152602001600020612eff90919063ffffffff16565b506129af81836002612f199092919063ffffffff16565b50808273ffffffffffffffffffffffffffffffffffffffff168473ffffffffffffffffffffffffffffffffffffffff167fddf252ad1be2c89b69c2b068fc378daa952ba7f163c4a11628f55a4df523b3ef60405160405180910390a4505050565b612a1a8383612f4e565b612a276000848484612ca4565b612a7c576040517f08c379a00000000000000000000000000000000000000000000000000000000081526004018080602001828103825260328152602001806137076032913960400191505060405180910390fd5b505050565b600081836000018054905011612ae2576040517f08c379a00000000000000000000000000000000000000000000000000000000081526004018080602001828103825260228152602001806136e56022913960400191505060405180910390fd5b826000018281548110612af157fe5b9060005260206000200154905092915050565b60008082846000018054905011612b66576040517f08c379a00000000000000000000000000000000000000000000000000000000081526004018080602001828103825260228152602001806138b56022913960400191505060405180910390fd5b6000846000018481548110612b7757fe5b906000526020600020906002020190508060000154816001015492509250509250929050565b60008084600101600085815260200190815260200160002054905060008114158390612c64576040517f08c379a00000000000000000000000000000000000000000000000000000000081526004018080602001828103825283818151815260200191508051906020019080838360005b83811015612c29578082015181840152602081019050612c0e565b50505050905090810190601f168015612c565780820380516001836020036101000a031916815260200191505b509250505060405180910390fd5b50846000016001820381548110612c7757fe5b9060005260206000209060020201600101549150509392505050565b600081600001805490509050919050565b6000612cc58473ffffffffffffffffffffffffffffffffffffffff16613142565b612cd25760019050612eb5565b6060612e3c63150b7a0260e01b612ce7612279565b888787604051602401808573ffffffffffffffffffffffffffffffffffffffff1681526020018473ffffffffffffffffffffffffffffffffffffffff16815260200183815260200180602001828103825283818151815260200191508051906020019080838360005b83811015612d6b578082015181840152602081019050612d50565b50505050905090810190601f168015612d985780820380516001836020036101000a031916815260200191505b5095505050505050604051602081830303815290604052907bffffffffffffffffffffffffffffffffffffffffffffffffffffffff19166020820180517bffffffffffffffffffffffffffffffffffffffffffffffffffffffff8381831617835250505050604051806060016040528060328152602001613707603291398773ffffffffffffffffffffffffffffffffffffffff166131559092919063ffffffff16565b90506000818060200190516020811015612e5557600080fd5b8101908080519060200190929190505050905063150b7a0260e01b7bffffffffffffffffffffffffffffffffffffffffffffffffffffffff1916817bffffffffffffffffffffffffffffffffffffffffffffffffffffffff191614925050505b949350505050565b600080836001016000848152602001908152602001600020541415905092915050565b505050565b6000612ef7836000018360001b61316d565b905092915050565b6000612f11836000018360001b613255565b905092915050565b6000612f45846000018460001b8473ffffffffffffffffffffffffffffffffffffffff1660001b6132c5565b90509392505050565b600073ffffffffffffffffffffffffffffffffffffffff168273ffffffffffffffffffffffffffffffffffffffff161415612ff1576040517f08c379a00000000000000000000000000000000000000000000000000000000081526004018080602001828103825260208152602001807f4552433732313a206d696e7420746f20746865207a65726f206164647265737381525060200191505060405180910390fd5b612ffa8161225c565b1561306d576040517f08c379a000000000000000000000000000000000000000000000000000000000815260040180806020018281038252601c8152602001807f4552433732313a20746f6b656e20616c7265616479206d696e7465640000000081525060200191505060405180910390fd5b61307960008383612ee0565b6130ca81600160008573ffffffffffffffffffffffffffffffffffffffff1673ffffffffffffffffffffffffffffffffffffffff168152602001908152602001600020612eff90919063ffffffff16565b506130e181836002612f199092919063ffffffff16565b50808273ffffffffffffffffffffffffffffffffffffffff16600073ffffffffffffffffffffffffffffffffffffffff167fddf252ad1be2c89b69c2b068fc378daa952ba7f163c4a11628f55a4df523b3ef60405160405180910390a45050565b600080823b905060008111915050919050565b606061316484846000856133a1565b90509392505050565b6000808360010160008481526020019081526020016000205490506000811461324957600060018203905060006001866000018054905003905060008660000182815481106131b857fe5b90600052602060002001549050808760000184815481106131d557fe5b906000526020600020018190555060018301876001016000838152602001908152602001600020819055508660000180548061320d57fe5b6001900381819060005260206000200160009055905586600101600087815260200190815260200160002060009055600194505050505061324f565b60009150505b92915050565b6000613261838361354a565b6132ba5782600001829080600181540180825580915050600190039060005260206000200160009091909190915055826000018054905083600101600084815260200190815260200160002081905550600190506132bf565b600090505b92915050565b600080846001016000858152602001908152602001600020549050600081141561336c5784600001604051806040016040528086815260200185815250908060018154018082558091505060019003906000526020600020906002020160009091909190915060008201518160000155602082015181600101555050846000018054905085600101600086815260200190815260200160002081905550600191505061339a565b8285600001600183038154811061337f57fe5b90600052602060002090600202016001018190555060009150505b9392505050565b6060824710156133fc576040517f08c379a00000000000000000000000000000000000000000000000000000000081526004018080602001828103825260268152602001806137a56026913960400191505060405180910390fd5b61340585613142565b613477576040517f08c379a000000000000000000000000000000000000000000000000000000000815260040180806020018281038252601d8152602001807f416464726573733a2063616c6c20746f206e6f6e2d636f6e747261637400000081525060200191505060405180910390fd5b600060608673ffffffffffffffffffffffffffffffffffffffff1685876040518082805190602001908083835b602083106134c757805182526020820191506020810190506020830392506134a4565b6001836020036101000a03801982511681845116808217855250505050505090500191505060006040518083038185875af1925050503d8060008114613529576040519150601f19603f3d011682016040523d82523d6000602084013e61352e565b606091505b509150915061353e82828661356d565b92505050949350505050565b600080836001016000848152602001908152602001600020541415905092915050565b6060831561357d57829050613632565b6000835111156135905782518084602001fd5b816040517f08c379a00000000000000000000000000000000000000000000000000000000081526004018080602001828103825283818151815260200191508051906020019080838360005b838110156135f75780820151818401526020810190506135dc565b50505050905090810190601f1680156136245780820380516001836020036101000a031916815260200191505b509250505060405180910390fd5b9392505050565b828054600181600116156101000203166002900490600052602060002090601f01602090048101928261366f57600085556136b6565b82601f1061368857805160ff19168380011785556136b6565b828001600101855582156136b6579182015b828111156136b557825182559160200191906001019061369a565b5b5090506136c391906136c7565b5090565b5b808211156136e05760008160009055506001016136c8565b509056fe456e756d657261626c655365743a20696e646578206f7574206f6620626f756e64734552433732313a207472616e7366657220746f206e6f6e20455243373231526563656976657220696d706c656d656e7465724f776e61626c653a206e6577206f776e657220697320746865207a65726f20616464726573734552433732313a207472616e7366657220746f20746865207a65726f2061646472657373596f752061726520616e20657863657074696f6e616c20636f6e7472696275746f72416464726573733a20696e73756666696369656e742062616c616e636520666f722063616c6c4552433732313a206f70657261746f7220717565727920666f72206e6f6e6578697374656e7420746f6b656e6d696e6543727970746f54726f70686965733a2072656365697665722063616e6e6f742062652061646472657373207a65726f4552433732313a20617070726f76652063616c6c6572206973206e6f74206f776e6572206e6f7220617070726f76656420666f7220616c6c4552433732313a2062616c616e636520717565727920666f7220746865207a65726f20616464726573734552433732313a206f776e657220717565727920666f72206e6f6e6578697374656e7420746f6b656e456e756d657261626c654d61703a20696e646578206f7574206f6620626f756e64734552433732313a20617070726f76656420717565727920666f72206e6f6e6578697374656e7420746f6b656e4552433732313a207472616e73666572206f6620746f6b656e2074686174206973206e6f74206f776e4552433732314d657461646174613a2055524920717565727920666f72206e6f6e6578697374656e7420746f6b656e4552433732313a20617070726f76616c20746f2063757272656e74206f776e65724552433732313a207472616e736665722063616c6c6572206973206e6f74206f776e6572206e6f7220617070726f766564a2646970667358221220a22d0c24299f131f79a70e1fceff7d78371577ed9ebd9d30005fdd1d052a999364736f6c63430007050033",
  "immutableReferences": {},
  "source": "// SPDX-License-Identifier: MIT\npragma solidity 0.7.5;\n\nimport \"@openzeppelin/contracts/token/ERC721/ERC721.sol\";\nimport \"@openzeppelin/contracts/access/Ownable.sol\";\nimport \"@openzeppelin/contracts/utils/Counters.sol\";\nimport \"@openzeppelin/contracts/math/SafeMath.sol\";\n\n/* @title CryptoTrophies\n * @notice Smart contract for minting unique CryptoTrophies Award\n */\ncontract CryptoTrophies is ERC721, Ownable {\n    using SafeMath for uint256;\n    using Counters for Counters.Counter;\n\n    Counters.Counter private _tokenIds;\n\n    // Mapping to get user owned tokens without using for loop\n    mapping(address => uint256[]) private userOwnedTokens;\n\n    // Truth\n    string public constant TRUTH = \"You are an exceptional contributor\";\n\n    /**\n     * @dev Sets the values {baseURI}.\n     *\n     * baseURI value is immutable: it can only be set once during construction.\n     */\n    constructor(string memory __baseURI)\n        public\n        ERC721(\"CryptoTrophies\", \"CRYPT\")\n    {\n        setBaseURI(__baseURI);\n    }\n\n    /**\n     * @dev Contract might receive/hold ETH as part of the maintenance process.\n     * The receive function is executed on a call to the contract with empty calldata.\n     */\n    // solhint-disable-next-line no-empty-blocks\n    receive() external payable {}\n\n    /**\n     * @dev The fallback function is executed on a call to the contract if\n     * none of the other functions match the given function signature.\n     */\n    fallback() external payable {}\n\n    /**\n     * @dev To giveaway CryptoTrophies (CryptoTrophies) to the developers/community\n     *\n     * Requirements:\n     * - giveaway CryptoTrophies cannot exceed 30.\n     * - invocation can be done, only by the contract owner.\n     */\n    function mineCryptoTrophies(address[] memory _receivers)\n        external\n        onlyOwner\n    {\n        uint256 receiverLength = _receivers.length;\n        uint256 mintIndex;\n        // Reserved for people who helped this project\n        for (uint256 i = 0; i < receiverLength; i++) {\n            //solhint-disable-next-line reason-string\n            require(\n                _receivers[i] != address(0),\n                \"mineCryptoTrophies: receiver cannot be address zero\"\n            );\n            mintIndex = _tokenIds.current();\n            userOwnedTokens[_receivers[i]].push(mintIndex);\n            // THIS ENSURES THAT TOKEN_ID IS ALWAYS UNIQUE\n            _safeMint(owner(), mintIndex);\n            _tokenIds.increment();\n        }\n    }\n\n    /**\n     * @dev To transfer all ETHs from `this contract` to `owner`\n     *\n     * Requirements:\n     * - invocation can be done, only by the contract owner.\n     */\n    function withdrawContractEth() external onlyOwner {\n        //solhint-disable-next-line avoid-low-level-calls\n        (bool success, ) = payable(msg.sender).call{\n            gas: 2300,\n            value: address(this).balance\n        }(\"\");\n        require(success, \"Withdraw failed\");\n    }\n\n    /**\n     * @dev To get all mined bravo awards\n     */\n    function totalCryptoTrophies() external view returns (uint256) {\n        return totalSupply();\n    }\n\n    /**\n     * @dev To get all mined bravo awards\n     */\n    function cryptoTrophiesOf(address _owner)\n        external\n        view\n        returns (uint256[] memory)\n    {\n        return userOwnedTokens[_owner];\n    }\n\n    /**\n     * @dev To check contracts ETH balance\n     */\n    function contractEthBalance() external view returns (uint256) {\n        return address(this).balance;\n    }\n\n    /**\n     * @dev To set/update the baseURI.\n     *\n     * Requirements:\n     * - invocation can be done, only by the contract owner.\n     */\n    function setBaseURI(string memory _baseURI) public onlyOwner {\n        _setBaseURI(_baseURI);\n    }\n\n    /**\n     * @dev Overrides the default internal function\n     */\n    function _transfer(\n        address from,\n        address to,\n        uint256 tokenId\n    ) internal override {\n        // TO DENOTE THAT THE TOKEN HAS BEEN TRANSFERRED, YOU CAN USE ANY OTHER NUMBER\n        userOwnedTokens[from][tokenId] = uint256(0);\n        userOwnedTokens[to].push(tokenId);\n        super._transfer(from, to, tokenId);\n    }\n}\n",
  "sourcePath": "/home/balajishettypachai/Desktop/learning/truffle-react/contracts/CryptoTrophies.sol",
  "compiler": {
    "name": "solc",
    "version": "0.7.5+commit.eb77ed08.Emscripten.clang"
  },
  "schemaVersion": "3.4.4",
  "updatedAt": "2022-01-06T10:32:52.248Z",
  "devdoc": {
    "kind": "dev",
    "methods": {
      "approve(address,uint256)": {
        "details": "See {IERC721-approve}."
      },
      "balanceOf(address)": {
        "details": "See {IERC721-balanceOf}."
      },
      "baseURI()": {
        "details": "Returns the base URI set via {_setBaseURI}. This will be automatically added as a prefix in {tokenURI} to each token's URI, or to the token ID if no specific URI is set for that token ID."
      },
      "constructor": {
        "details": "Sets the values {baseURI}. baseURI value is immutable: it can only be set once during construction."
      },
      "contractEthBalance()": {
        "details": "To check contracts ETH balance"
      },
      "cryptoTrophiesOf(address)": {
        "details": "To get all mined bravo awards"
      },
      "getApproved(uint256)": {
        "details": "See {IERC721-getApproved}."
      },
      "isApprovedForAll(address,address)": {
        "details": "See {IERC721-isApprovedForAll}."
      },
      "mineCryptoTrophies(address[])": {
        "details": "To giveaway CryptoTrophies (CryptoTrophies) to the developers/community Requirements: - giveaway CryptoTrophies cannot exceed 30. - invocation can be done, only by the contract owner."
      },
      "name()": {
        "details": "See {IERC721Metadata-name}."
      },
      "owner()": {
        "details": "Returns the address of the current owner."
      },
      "ownerOf(uint256)": {
        "details": "See {IERC721-ownerOf}."
      },
      "renounceOwnership()": {
        "details": "Leaves the contract without owner. It will not be possible to call `onlyOwner` functions anymore. Can only be called by the current owner. NOTE: Renouncing ownership will leave the contract without an owner, thereby removing any functionality that is only available to the owner."
      },
      "safeTransferFrom(address,address,uint256)": {
        "details": "See {IERC721-safeTransferFrom}."
      },
      "safeTransferFrom(address,address,uint256,bytes)": {
        "details": "See {IERC721-safeTransferFrom}."
      },
      "setApprovalForAll(address,bool)": {
        "details": "See {IERC721-setApprovalForAll}."
      },
      "setBaseURI(string)": {
        "details": "To set/update the baseURI. Requirements: - invocation can be done, only by the contract owner."
      },
      "supportsInterface(bytes4)": {
        "details": "See {IERC165-supportsInterface}. Time complexity O(1), guaranteed to always use less than 30 000 gas."
      },
      "symbol()": {
        "details": "See {IERC721Metadata-symbol}."
      },
      "tokenByIndex(uint256)": {
        "details": "See {IERC721Enumerable-tokenByIndex}."
      },
      "tokenOfOwnerByIndex(address,uint256)": {
        "details": "See {IERC721Enumerable-tokenOfOwnerByIndex}."
      },
      "tokenURI(uint256)": {
        "details": "See {IERC721Metadata-tokenURI}."
      },
      "totalCryptoTrophies()": {
        "details": "To get all mined bravo awards"
      },
      "totalSupply()": {
        "details": "See {IERC721Enumerable-totalSupply}."
      },
      "transferFrom(address,address,uint256)": {
        "details": "See {IERC721-transferFrom}."
      },
      "transferOwnership(address)": {
        "details": "Transfers ownership of the contract to a new account (`newOwner`). Can only be called by the current owner."
      },
      "withdrawContractEth()": {
        "details": "To transfer all ETHs from `this contract` to `owner` Requirements: - invocation can be done, only by the contract owner."
      }
    },
    "version": 1
  },
  "userdoc": {
    "kind": "user",
    "methods": {},
    "version": 1
  }
}