{
  "contractName": "NFTGiveaway",
  "abi": [
    {
      "anonymous": false,
      "inputs": [
        {
          "indexed": true,
          "internalType": "address",
          "name": "previousOwner",
          "type": "address"
        },
        {
          "indexed": true,
          "internalType": "address",
          "name": "newOwner",
          "type": "address"
        }
      ],
      "name": "OwnershipTransferred",
      "type": "event"
    },
    {
      "inputs": [
        {
          "internalType": "address",
          "name": "",
          "type": "address"
        },
        {
          "internalType": "uint256",
          "name": "",
          "type": "uint256"
        }
      ],
      "name": "distributedNFTs",
      "outputs": [
        {
          "internalType": "uint256",
          "name": "",
          "type": "uint256"
        }
      ],
      "stateMutability": "view",
      "type": "function"
    },
    {
      "inputs": [
        {
          "internalType": "address",
          "name": "",
          "type": "address"
        }
      ],
      "name": "isNFTWhiteListed",
      "outputs": [
        {
          "internalType": "bool",
          "name": "",
          "type": "bool"
        }
      ],
      "stateMutability": "view",
      "type": "function"
    },
    {
      "inputs": [],
      "name": "owner",
      "outputs": [
        {
          "internalType": "address",
          "name": "",
          "type": "address"
        }
      ],
      "stateMutability": "view",
      "type": "function"
    },
    {
      "inputs": [],
      "name": "renounceOwnership",
      "outputs": [],
      "stateMutability": "nonpayable",
      "type": "function"
    },
    {
      "inputs": [
        {
          "internalType": "address",
          "name": "newOwner",
          "type": "address"
        }
      ],
      "name": "transferOwnership",
      "outputs": [],
      "stateMutability": "nonpayable",
      "type": "function"
    },
    {
      "inputs": [
        {
          "internalType": "address",
          "name": "nftContract",
          "type": "address"
        }
      ],
      "name": "whitelistNFT",
      "outputs": [],
      "stateMutability": "nonpayable",
      "type": "function"
    },
    {
      "inputs": [
        {
          "internalType": "address",
          "name": "from",
          "type": "address"
        },
        {
          "internalType": "address",
          "name": "nftContract",
          "type": "address"
        },
        {
          "internalType": "address[]",
          "name": "receivers",
          "type": "address[]"
        },
        {
          "internalType": "uint256[]",
          "name": "tokenIds",
          "type": "uint256[]"
        }
      ],
      "name": "distributeNFTs",
      "outputs": [],
      "stateMutability": "nonpayable",
      "type": "function"
    },
    {
      "inputs": [
        {
          "internalType": "address",
          "name": "nftContract",
          "type": "address"
        }
      ],
      "name": "getDistributedNFTs",
      "outputs": [
        {
          "internalType": "uint256[]",
          "name": "_distributedNFTs",
          "type": "uint256[]"
        }
      ],
      "stateMutability": "view",
      "type": "function"
    }
  ],
  "bytecode": "0x608060405234801561001057600080fd5b5060006100216100c460201b60201c565b9050806000806101000a81548173ffffffffffffffffffffffffffffffffffffffff021916908373ffffffffffffffffffffffffffffffffffffffff1602179055508073ffffffffffffffffffffffffffffffffffffffff16600073ffffffffffffffffffffffffffffffffffffffff167f8be0079c531659141344cd1fd0a4f28419497f9722a3daafe3b4186f6b6457e060405160405180910390a3506100cc565b600033905090565b610f93806100db6000396000f3fe608060405234801561001057600080fd5b50600436106100885760003560e01c80638da5cb5b1161005b5780638da5cb5b146102df578063bcdbfe6814610313578063c691334d14610357578063f2fde38b146103f057610088565b8063103101e61461008d578063252e503c146100ef57806335db3d8c1461027b578063715018a6146102d5575b600080fd5b6100d9600480360360408110156100a357600080fd5b81019080803573ffffffffffffffffffffffffffffffffffffffff16906020019092919080359060200190929190505050610434565b6040518082815260200191505060405180910390f35b6102796004803603608081101561010557600080fd5b81019080803573ffffffffffffffffffffffffffffffffffffffff169060200190929190803573ffffffffffffffffffffffffffffffffffffffff1690602001909291908035906020019064010000000081111561016257600080fd5b82018360208201111561017457600080fd5b8035906020019184602083028401116401000000008311171561019657600080fd5b919080806020026020016040519081016040528093929190818152602001838360200280828437600081840152601f19601f820116905080830192505050505050509192919290803590602001906401000000008111156101f657600080fd5b82018360208201111561020857600080fd5b8035906020019184602083028401116401000000008311171561022a57600080fd5b919080806020026020016040519081016040528093929190818152602001838360200280828437600081840152601f19601f820116905080830192505050505050509192919290505050610465565b005b6102bd6004803603602081101561029157600080fd5b81019080803573ffffffffffffffffffffffffffffffffffffffff1690602001909291905050506106c7565b60405180821515815260200191505060405180910390f35b6102dd6106e7565b005b6102e7610854565b604051808273ffffffffffffffffffffffffffffffffffffffff16815260200191505060405180910390f35b6103556004803603602081101561032957600080fd5b81019080803573ffffffffffffffffffffffffffffffffffffffff16906020019092919050505061087d565b005b6103996004803603602081101561036d57600080fd5b81019080803573ffffffffffffffffffffffffffffffffffffffff169060200190929190505050610b5d565b6040518080602001828103825283818151815260200191508051906020019060200280838360005b838110156103dc5780820151818401526020810190506103c1565b505050509050019250505060405180910390f35b6104326004803603602081101561040657600080fd5b81019080803573ffffffffffffffffffffffffffffffffffffffff169060200190929190505050610cb7565b005b6002602052816000526040600020818154811061045057600080fd5b90600052602060002001600091509150505481565b600160008473ffffffffffffffffffffffffffffffffffffffff1673ffffffffffffffffffffffffffffffffffffffff16815260200190815260200160002060009054906101000a900460ff16610507576040517f08c379a0000000000000000000000000000000000000000000000000000000008152600401808060200182810382526028815260200180610f366028913960400191505060405180910390fd5b8051825114610561576040517f08c379a0000000000000000000000000000000000000000000000000000000008152600401808060200182810382526021815260200180610f156021913960400191505060405180910390fd5b60005b82518110156106c0578373ffffffffffffffffffffffffffffffffffffffff166342842e0e8685848151811061059657fe5b60200260200101518585815181106105aa57fe5b60200260200101516040518463ffffffff1660e01b8152600401808473ffffffffffffffffffffffffffffffffffffffff1681526020018373ffffffffffffffffffffffffffffffffffffffff1681526020018281526020019350505050600060405180830381600087803b15801561062257600080fd5b505af1158015610636573d6000803e3d6000fd5b50505050600260008573ffffffffffffffffffffffffffffffffffffffff1673ffffffffffffffffffffffffffffffffffffffff16815260200190815260200160002082828151811061068557fe5b602002602001015190806001815401808255809150506001900390600052602060002001600090919091909150558080600101915050610564565b5050505050565b60016020528060005260406000206000915054906101000a900460ff1681565b6106ef610ea9565b73ffffffffffffffffffffffffffffffffffffffff1661070d610854565b73ffffffffffffffffffffffffffffffffffffffff1614610796576040517f08c379a00000000000000000000000000000000000000000000000000000000081526004018080602001828103825260208152602001807f4f776e61626c653a2063616c6c6572206973206e6f7420746865206f776e657281525060200191505060405180910390fd5b600073ffffffffffffffffffffffffffffffffffffffff1660008054906101000a900473ffffffffffffffffffffffffffffffffffffffff1673ffffffffffffffffffffffffffffffffffffffff167f8be0079c531659141344cd1fd0a4f28419497f9722a3daafe3b4186f6b6457e060405160405180910390a360008060006101000a81548173ffffffffffffffffffffffffffffffffffffffff021916908373ffffffffffffffffffffffffffffffffffffffff160217905550565b60008060009054906101000a900473ffffffffffffffffffffffffffffffffffffffff16905090565b610885610ea9565b73ffffffffffffffffffffffffffffffffffffffff166108a3610854565b73ffffffffffffffffffffffffffffffffffffffff161461092c576040517f08c379a00000000000000000000000000000000000000000000000000000000081526004018080602001828103825260208152602001807f4f776e61626c653a2063616c6c6572206973206e6f7420746865206f776e657281525060200191505060405180910390fd5b600073ffffffffffffffffffffffffffffffffffffffff168173ffffffffffffffffffffffffffffffffffffffff1614156109cf576040517f08c379a000000000000000000000000000000000000000000000000000000000815260040180806020018281038252601f8152602001807f436f6e74726163742063616e6e6f74206265207a65726f20616464726573730081525060200191505060405180910390fd5b6109ee8173ffffffffffffffffffffffffffffffffffffffff16610eb1565b610a43576040517f08c379a000000000000000000000000000000000000000000000000000000000815260040180806020018281038252602a815260200180610eeb602a913960400191505060405180910390fd5b600160008273ffffffffffffffffffffffffffffffffffffffff1673ffffffffffffffffffffffffffffffffffffffff16815260200190815260200160002060009054906101000a900460ff1615610b03576040517f08c379a00000000000000000000000000000000000000000000000000000000081526004018080602001828103825260138152602001807f416c72656164792077686974656c69737465640000000000000000000000000081525060200191505060405180910390fd5b60018060008373ffffffffffffffffffffffffffffffffffffffff1673ffffffffffffffffffffffffffffffffffffffff16815260200190815260200160002060006101000a81548160ff02191690831515021790555050565b6060600260008373ffffffffffffffffffffffffffffffffffffffff1673ffffffffffffffffffffffffffffffffffffffff1681526020019081526020016000208054905067ffffffffffffffff81118015610bb857600080fd5b50604051908082528060200260200182016040528015610be75781602001602082028036833780820191505090505b50905060005b600260008473ffffffffffffffffffffffffffffffffffffffff1673ffffffffffffffffffffffffffffffffffffffff16815260200190815260200160002080549050811015610cb157600260008473ffffffffffffffffffffffffffffffffffffffff1673ffffffffffffffffffffffffffffffffffffffff1681526020019081526020016000208181548110610c8157fe5b9060005260206000200154828281518110610c9857fe5b6020026020010181815250508080600101915050610bed565b50919050565b610cbf610ea9565b73ffffffffffffffffffffffffffffffffffffffff16610cdd610854565b73ffffffffffffffffffffffffffffffffffffffff1614610d66576040517f08c379a00000000000000000000000000000000000000000000000000000000081526004018080602001828103825260208152602001807f4f776e61626c653a2063616c6c6572206973206e6f7420746865206f776e657281525060200191505060405180910390fd5b600073ffffffffffffffffffffffffffffffffffffffff168173ffffffffffffffffffffffffffffffffffffffff161415610dec576040517f08c379a0000000000000000000000000000000000000000000000000000000008152600401808060200182810382526026815260200180610ec56026913960400191505060405180910390fd5b8073ffffffffffffffffffffffffffffffffffffffff1660008054906101000a900473ffffffffffffffffffffffffffffffffffffffff1673ffffffffffffffffffffffffffffffffffffffff167f8be0079c531659141344cd1fd0a4f28419497f9722a3daafe3b4186f6b6457e060405160405180910390a3806000806101000a81548173ffffffffffffffffffffffffffffffffffffffff021916908373ffffffffffffffffffffffffffffffffffffffff16021790555050565b600033905090565b600080823b90506000811191505091905056fe4f776e61626c653a206e6577206f776e657220697320746865207a65726f206164647265737350726f76696465642061646472657373206973206e6f74206120636f6e7472616374206164647265737343616e6e6f7420646973747269627574653a20756e657175616c20706172616d7343616e6e6f7420646973747269627574653a206e6f7420612077686974656c6973746564204e4654a2646970667358221220396d7896d777fc4c823695dff769605fc27c1ef953765b5669ac10e0e732b59c64736f6c63430007050033",
  "immutableReferences": {},
  "source": "// SPDX-License-Identifier: MIT\npragma solidity 0.7.5;\n\nimport \"@openzeppelin/contracts/access/Ownable.sol\";\nimport \"@openzeppelin/contracts/utils/Address.sol\";\nimport \"@openzeppelin/contracts/token/ERC721/IERC721.sol\";\n\n/// @title NFTGiveaway\n/// @notice Contract for distributing NFTs\ncontract NFTGiveaway is Ownable {\n    using Address for address;\n\n    mapping(address => bool) public isNFTWhiteListed;\n    mapping(address => uint256[]) public distributedNFTs;\n\n    /**\n     * @dev To whitelist an NFT contract address\n     *\n     * Requirements:\n     *\n     * - can only be invoked by the owner of the contract\n     */\n    function whitelistNFT(address nftContract) external onlyOwner {\n        require(nftContract != address(0), \"Contract cannot be zero address\");\n        require(\n            nftContract.isContract(),\n            \"Provided address is not a contract address\"\n        );\n        require(!isNFTWhiteListed[nftContract], \"Already whitelisted\");\n        isNFTWhiteListed[nftContract] = true;\n    }\n\n    /**\n     * @dev To distribute NFTs to wallet addresses\n     */\n    function distributeNFTs(\n        address from,\n        address nftContract,\n        address[] memory receivers,\n        uint256[] memory tokenIds\n    ) external {\n        require(\n            isNFTWhiteListed[nftContract],\n            \"Cannot distribute: not a whitelisted NFT\"\n        );\n        require(\n            receivers.length == tokenIds.length,\n            \"Cannot distribute: unequal params\"\n        );\n        for (uint256 i = 0; i < receivers.length; i++) {\n            IERC721(nftContract).safeTransferFrom(\n                from,\n                receivers[i],\n                tokenIds[i]\n            );\n            distributedNFTs[nftContract].push(tokenIds[i]);\n        }\n    }\n\n    /**\n     * @dev Returns the list of tokenIds distributed as per the nftContract\n     */\n    function getDistributedNFTs(address nftContract)\n        external\n        view\n        returns (uint256[] memory _distributedNFTs)\n    {\n        _distributedNFTs = new uint256[](distributedNFTs[nftContract].length);\n        for (uint256 i = 0; i < distributedNFTs[nftContract].length; i++) {\n            _distributedNFTs[i] = distributedNFTs[nftContract][i];\n        }\n    }\n}\n",
  "sourcePath": "/home/balajishettypachai/Desktop/learning/truffle-react/contracts/NFTGiveaway.sol",
  "compiler": {
    "name": "solc",
    "version": "0.7.5+commit.eb77ed08.Emscripten.clang"
  },
  "schemaVersion": "3.4.4",
  "updatedAt": "2022-01-06T10:32:52.255Z",
  "devdoc": {
    "kind": "dev",
    "methods": {
      "distributeNFTs(address,address,address[],uint256[])": {
        "details": "To distribute NFTs to wallet addresses"
      },
      "getDistributedNFTs(address)": {
        "details": "Returns the list of tokenIds distributed as per the nftContract"
      },
      "owner()": {
        "details": "Returns the address of the current owner."
      },
      "renounceOwnership()": {
        "details": "Leaves the contract without owner. It will not be possible to call `onlyOwner` functions anymore. Can only be called by the current owner. NOTE: Renouncing ownership will leave the contract without an owner, thereby removing any functionality that is only available to the owner."
      },
      "transferOwnership(address)": {
        "details": "Transfers ownership of the contract to a new account (`newOwner`). Can only be called by the current owner."
      },
      "whitelistNFT(address)": {
        "details": "To whitelist an NFT contract address Requirements: - can only be invoked by the owner of the contract"
      }
    },
    "title": "NFTGiveaway",
    "version": 1
  },
  "userdoc": {
    "kind": "user",
    "methods": {},
    "notice": "Contract for distributing NFTs",
    "version": 1
  }
}